:100000004EC2000068C2000066C200000C947E115F
:1000100062C2000060C200005EC200005CC200005C
:100020005AC2000058C200000C94D22554C20000ED
:1000300052C2000050C200004EC200004CC200007C
:100040004AC200000C941B1146C2000044C20000CA
:1000500042C200004BC500003EC200003CC200008E
:100060003AC2000038C2000036C2000034C20000AC
:1000700032C2000030C200002EC200002CC20000BC
:100080002AC2000028C2000026C2000024C20000CC
:1000900022C2000020C200001EC200001CC20000DC
:1000A0001AC2000018C2000016C20000E02212238B
:1000B000F6231223F6235A238223F6239E23C623F4
:1000C000426508625B2843860346740A69751A41D3
:1000D00097165A091945071A47770A4DAF0A4B1D5B
:1000E0000B55A20B59F91B52D30754B91E56CC0815
:1000F00057130858120D658C086644216D93226CC5
:10010000540874B60575C2137819040000002A0358
:10011000430055004C0034003300330000002A0334
:10012000430055004C00380036003800000016032C
:1001300062007500730077006100720065002E0098
:100140006400650000000403090409024300020181
:1001500000803209040000010202010005240001B0
:1001600010052401030104240206052406000107EA
:100170000582030800FF09040100020A00000007CD
:100180000504024000000705830240000012011030
:100190000102000008EB034B2000000102000120D7
:1001A0002F2000203D2000072E050DD391FF0805CC
:1001B00000000C0021656A2D3B1322F862073F18EE
:1001C0001D1CC700B0876BF8B611EA2A001F41005A
:1001D0000D2E2D07D3913D04320000060021656AE3
:1001E00055E43023B900070018146C070090876BA2
:1001F000F85611E92A001F410000030F1E262700B0
:100200000000030F1E2536386700030F2567406086
:100210005000030F275188838100030F2750C8C364
:10022000C20027000000000000006700000000007E
:1002300000005000000000000000810000000000ED
:100240000000C2000000000000504C4C310D0A00BC
:10025000504C4C300D0A005620312E36312043557B
:100260004C383638005620312E36312043554C3428
:1002700033330043554C5F563300202F2000203D80
:1002800020004C4F56460D0A00424F56460D0A00BC
:100290000B08105B11F81547191D1A1C1BC71C0011
:1002A0001DB221B623EA0007022E030D04E905CA98
:1002B000070C0B060D210E650F6A10C8119312036F
:1002C00015341733181819161B432156250026110B
:1002D00029592C812D353EC34C454E4552520D0AAD
:1002E000004C4F56460D0A004C454E4552520D0AE1
:1002F000000007024604C605260B0610C81193121B
:100300000313221534173F182819161B43215625AD
:100310000026110D210E650F6A070C160720F81E26
:10032000871F6B29592C812D353EC3FF0000070222
:1003300046030D049A057D0642070C0B060D210E9F
:10034000650F6A10C8119312031534170018181995
:10035000161B431C6825002611FF0000000000004A
:100360000000000000000000000D2E2D07D3913D7D
:1003700004320000060010B07155E43023B90007C4
:100380000018146C070090876BF85611E92A001FBB
:1003900041000D2E2D07D3913D04320000060010C0
:1003A000ABA5550A3023B900070018146C0700905C
:1003B000876BF85611E92A001F41004E2F41004576
:1003C0004F420D0A004E2F410000535300547D7DD3
:1003D000FFFF4B4B7E7E0020697320756E6B6E6F46
:1003E000776E2920557365206F6E65206F66003F1C
:1003F0002028004F464600544D4F444500534D4F72
:100400004445000454053D1700000602000B080C8B
:10041000000D210E6B0FD0105C1104120613221474
:10042000F80A00154421B622101818192E1ABF1BFD
:10043000431C091DB523EA242A2500261F29592C0F
:10044000812D352E0907000800090006FF3EC2FF76
:10045000047605961700000602000B080C000D211B
:100460000E650F6A106A114A1206132214F80A0068
:10047000154721B622101818192E1A6D1B041C09D5
:100480001DB223EA242A2500261F29592C812D3547
:100490002E0907000800090006FF3EC2FF001124D4
:1004A0001FBECFEFDAE0DEBFCDBF11E0A0E0B1E0CC
:1004B000E8EFF7E502C005900D92AE38B107D9F725
:1004C00018E0AEE8B1E001C01D92A63DB107E1F72A
:1004D0000CD00C94FA2B94CDF89481E085BF82E087
:1004E00085BFE0E0F8E3099508952FE088E190E00A
:1004F0000FB6F894A895809360000FBE209360001B
:1005000090E080E80FB6F8948093610090936100CA
:100510000FBE2E9A2D9A04B603FE0AC083E390E024
:1005200029D5882329F060E083E390E01ED5D4DF4D
:1005300089EF87BD84E085BD82E084BD80936E0035
:10054000109280008AE08093810084B7877F84BF07
:100550006E9A0E9461220DD60E94A7250E94981EC5
:100560000E94F10C80E292E290938E0380938D03BF
:100570000E94E61289E08093920176980E9482267A
:10058000F0D10E94D40E02D30E948B210E946414E9
:100590000E9460150E9491180E9484190E9463278E
:1005A000EDCF292F33272230310559F02330310583
:1005B00069F02130310539F582E190E02DE831E034
:1005C00026C083E490E02AE431E021C099278130FD
:1005D000910539F018F0029751F015C0E6E4F1E00A
:1005E00002C0EEE2F1E0849190E09F0110C01E99FC
:1005F00003C02EE031E002C02EE131E0EEE1F1E097
:10060000849190E004C080E090E020E030E0FA01C6
:100610003183208308958EBD0DB407FEFDCF8EB5C6
:100620000895A1E0B0E0E7E1F3E00C948C2A482FB4
:100630008A3008F048E088E0489F70011124F701F3
:10064000E750FE4F7F018BE290E0F70164918C014F
:100650000F5F1F4F498389D4FFEFEF1AFF0A4981CB
:100660000333110511F0C801F0CF4550453010F4A7
:1006700061E101C067E184E290E077D42196E6E091
:100680000C94A82ACF93DF9382E090E0FC01E25320
:10069000FE4F6491EC01219668D4CB32D10511F064
:1006A000CE01F4CF87E390E0FC01E059FE4F649166
:1006B000EC0121965AD4C036D10511F0CE01F4CF09
:1006C0001E9918C060E18FE090E04FD460EB80E1AC
:1006D00090E04BD461E781E190E047D460E184E4AD
:1006E00090E043D460EB85E490E03FD461E786E49A
:1006F00090E03BD488E095DFDF91CF910895289872
:10070000806C89DF80E087DF289A0895A1E0B0E05F
:10071000ECE8F3E00C948F2A41E0BE016F5F7F4F5D
:100720000196BFD3892B21F18981893969F410E0C1
:10073000812FE5DFB2D3812F8770873009F439D359
:100740001F5F1033A9F714C0DADF182F83E4E5D256
:100750008981A3D383EA91E01FD3812F9ED38FE9B0
:1007600091E01AD340E262E0812F90E026D321D3BA
:100770002196E3E00C94AB2AA1E0B0E0E2ECF3E0D8
:100780000C94902A28988064698345DF6981862FBC
:1007900042DF289A2196E2E00C94AC2A28983BDFAD
:1007A000289A0895EF92FF920F931F93CF93DF93B0
:1007B000EC0110923E02EA98209A289A8EE190E08D
:1007C00042D228988EE190E03ED2289A8DE290E0C5
:1007D0003AD280E3E3DF84E690E035D2289880E4E3
:1007E0001ADF7E0189E2E80EF11C8E010F5F1F4FB8
:1007F000CE01C0D310DF0E151F0511F0E801F5CFB3
:10080000289A28988EE707DF8BE290E0EC0121968A
:10081000B1D301DFC333D10511F0CE01F7CF289A50
:1008200083E3BCDF81E014D2CDB7DEB7E6E00C9401
:10083000A82AA1E0B0E0EFE1F4E00C94902A22E0D5
:10084000298341E0BE016F5F7F4F01962AD38981E2
:10085000E8DE82E090E0A6DF2196E2E00C94AC2A8C
:10086000CF93EA9886E39ADFCFEF85E397DFC15015
:100870008077803229F08AE090E0E5D1C111F5CF90
:10088000CF910895CF93CFEF84E388DFC150807775
:10089000803129F08AE090E0D6D1C111F5CFEA9AF3
:1008A000CF91089586E37ADF10928F0310923C0275
:1008B00010923E02089582E090E074DF81E0809320
:1008C0008F0310923C0210923E0208950F931F93E3
:1008D000CF93DF93082F10E0C62FD0E085E30FDF22
:1008E000801731F0CE01AFD11150C1F781E001C0C6
:1008F00080E0DF91CF911F910F91089585E2FFDE97
:100900008F3311F080E0089586E348DF80918E01F7
:10091000811104C080E592E03FD202C08DE33EDF4A
:1009200083E33CDF64E081E0D1DF85E2E8DE8F3302
:1009300049F780918E01811103C089E492E02CD2A5
:1009400081E0089585E3DBDE8D3051F485E2D7DE6A
:100950008F3331F4D3DF84E321DF80778031D9F71F
:10096000089580915205843009F069C08093E900B0
:1009700080918F0181112AC08091E80085FF26C0F7
:100980008091F2009091F300892B31F06091F10099
:100990008BEC94E016D4F4CF8091E800982F9B7FE5
:1009A0009093E8008F778093E80081E080938F0137
:1009B00081EB94E090938C0380938B03E0918D0303
:1009C000F0918E0381E0099510928F0183E080936E
:1009D000E90080914A04882391F18091E80085FF25
:1009E0002EC0F89480914A04882369F08091F20027
:1009F0009091F3008034910530F488E494E0F7D3CB
:100A00008093F100EFCF78948091F2009091F30001
:100A10002091E800322F3E7F3093E8002F7720931B
:100A2000E8008034910559F40E944C248091E8003C
:100A3000982F9E7F9093E8008F778093E800089529
:100A400042E061EC82E00E94FC2342E361E883E043
:100A50000E94FC2342E360E884E00E94FC231092A1
:100A600000011092010110920201109203010895F9
:100A70008091530590915405913229F0923261F1A1
:100A8000903299F512C0813A81F58091E800877F14
:100A90008093E80067E070E080E091E00E947524B8
:100AA0008091E800982F9B7F11C08132F1F48091F2
:100AB000E800877F8093E80067E070E080E091E0E5
:100AC0000E941F258091E800982F9E7F9093E80058
:100AD0008F778093E8000895813239F48091E8009F
:100AE000877F8093E8000C94262408951F920F922C
:100AF0000FB60F9211248F939F93AF93BF93809162
:100B0000910390919203A0919303B0919403019665
:100B1000A11DB11D8093910390939203A093930321
:100B2000B0939403809190038F5F809390038D37EF
:100B300010F0109290038091330490913404009748
:100B400029F00197909334048093330480914604F4
:100B50008F3F19F0815080934604BF91AF919F91D0
:100B60008F910F900FBE0F901F901895CF93DF932A
:100B7000C1E9D3E08B8191D18A818FD189818DD1D7
:100B800088818BD116D1DF91CF9108958091910307
:100B900090919203A0919303B091940320919101BD
:100BA000281709F44FC08091910390919203A0916E
:100BB0009303B091940380939101A895809133049D
:100BC00090913404892B11F40E94102080914604E6
:100BD000811102C00E946E2080912304882339F085
:100BE000815080932304811102C00E94F7148091E8
:100BF0009003811127C08091070181FF04C08EB14D
:100C000090E489278EB98091950390919603803264
:100C10002CE1920728F40196909396038093950314
:100C2000809190018F5F809390018C3359F41092E2
:100C30009001809130048F5F809330048C3310F0EA
:100C4000109230040895880F991F0197F1F70895C5
:100C500020ED37E0815020F0F9013197F1F7FACF1C
:100C60000895CF93DF93DC0113968C91139784350D
:100C700009F050C0CD010396CC91FD0170964DE076
:100C80004C1750F050E0D0E09E012F503109421730
:100C9000530709F03FC005C021912B3399F34F5FF3
:100CA000EFCFFE013E97E80FF91F2081243591F523
:100CB00014963C911497218132132CC015963C91C7
:100CC00015972281321326C016963C9116972381E0
:100CD000321320C017963C911797248132131AC003
:100CE0006197C80FD91F8581888386818983818513
:100CF0008A8382858B8383858C8384858D83858598
:100D00008E838C918A508C9312968C9112978A5074
:100D100012968C93DF91CF910895CF93C82F809135
:100D20005205843079F48091920180FF0BC080914C
:100D30004A0487FD16DE6C2F88E494E042D2CA3064
:100D400009F40FDE80912E048823C9F0809192016E
:100D500083FF15C0CA3099F0CD3011F46BE301C0A8
:100D60006C2F8EE993E02DD2CD3019F48EE993E00B
:100D700078DF83E08093230482E080932904CF917D
:100D80000895CF93DF93EC018991882311F0C5DF9B
:100D9000FBCFDF91CF910895CF93DF93EC01FE015C
:100DA0008491882319F0B9DF2196F9CFDF91CF9193
:100DB00008958DE0B2DF8AE0B0CFA6E0B0E0E3EEC8
:100DC000F6E00C948E2A062F1E8215E02AE030E011
:100DD0001150E1E0F0E0EC0FFD1FE10FF11DB90152
:100DE0000E94592A805D8083CB010150009769F0F1
:100DF0001111EECF0AC0112359F01150E1E0F0E0DB
:100E0000EC0FFD1FE10FF11D4083015007FFF3CFF1
:100E100081E090E08C0F9D1F810F911DB2DF26961F
:100E2000E4E00C94AA2AA5E0B0E0E9E1F7E00C9434
:100E3000902A1D8224E0382F3F702150E22FF0E0ED
:100E40003A3010F4305D01C0395CA1E0B0E0AC0F85
:100E5000BD1FEA0FFB1F308334E0969587953A95C6
:100E6000E1F76150009739F7615067FD0BC022230D
:100E700049F02150E1E0F0E0EC0FFD1FE20FF11D21
:100E80004083F2CF81E090E08C0F9D1F820F911D77
:100E900078DF2596E2E00C94AC2A40E362E090E033
:100EA000C2CFDC01FB0190E020E08D918823E9F0C6
:100EB00030ED380F3A3018F4232B31E001C030E028
:100EC0005FEB580F563020F439EC380F232B31E00C
:100ED0005FE9580F563018F48755282B08C0311198
:100EE00006C0803211F38A3301F3CF0107C0992382
:100EF00041F0CF0101962083415039F4861B970BB6
:100F000008952295207F91E0D0CFFC01CCCF20E046
:100F100030E05AE0FC014191CF01442379F0E0ED4B
:100F2000E40FEA30B8F7F9015E9F90015F9F300D42
:100F3000112420533109240F311DECCFFB013183E3
:100F400020830895982F92959F709A3010F4905DA9
:100F500001C0995CFB0190838F708A3010F4805D32
:100F600001C0895CFB01818308950E94EC2BF999F3
:100F7000FECF08950C94E42B08951F93CF93DF9335
:100F8000162F11501F3F59F0EC012196F3DF85DF3A
:100F9000112311F08AE3C1DE1150CE01F3CFDF91AE
:100FA000CF911F910895A2E0B0E0E9EDF7E00C9435
:100FB0008D2AFC0121812D3421F466E08AEF93E033
:100FC00005C0203529F460E18AED93E0D6DF26C024
:100FD0001A82198242E0BE016F5F7F4F019661DF86
:100FE000098110E0823021F4102F00278A81082B1C
:100FF000C801C0DFF82E82E590DE40E364E0C8015E
:1010000012DF8EE792E0C8DE8F2D47DF8AE792E09D
:10101000C3DE40E262E08F2D90E0CFDECADE229692
:10102000E5E00C94A92AA6E0B0E0E9E1F8E00C9430
:101030008A2A6C0143E0BE016F5F7F4F019631DF6A
:10104000823070F1E980F12C823021F0FE2CEE2408
:101050002A81E22A8C011127FE01E00FF11F608135
:10106000C70183DF000F111F0F5F1F4F0C0D1D1DE8
:101070008FEFE81AF80AF8018081882389F041E0AF
:10108000BE016F5F7F4FC8010CDF892B49F069817A
:10109000C7016BDF0E5F1F4FE2E0EE0EF11CEBCFDE
:1010A0002696E8E00C94A62A41E067E071E00196FC
:1010B000F8DE8091070180FF02C0769A01C0769821
:1010C0006091070184E390E050CFA1E0B0E0EBE64F
:1010D000F8E00C94902A1982009731F041E0BE01AB
:1010E0006F5F7F4F0196DDDE8981882321F061E00B
:1010F00083E390E03ADF0E94B22510926E00F894EC
:1011000028E088E190E00FB6F894A89580936000FD
:101110000FBE20936000FFCFCF93DF93EC0161E01F
:1011200080E090E022DF6DE381E090E01EDFAADA4C
:1011300060E080E690E019DF60E081E690E015DF96
:1011400060E083E390E011DF62E084E390E00DDF94
:1011500060E080E690E009DF60E081E690E005DF96
:101160008981883719F080E090E0AFDFDF91CF917F
:10117000089580E090E0FEDE813029F481E090E087
:10118000F9DE8D3319F080E090E0C6DF84E390E073
:10119000F1DE809307010895FC018181883419F400
:1011A00083E792E007C01E9903C085E692E002C083
:1011B00087E592E0F1DDFDCDFC0112821082118203
:1011C0000895FC018FB7F894928197FD0EC09F5F40
:1011D0009283208191E0920F9083DF01A20FB11DD5
:1011E00013966C93903809F410828FBF0895FC0118
:1011F0009FB7F8948281882371F081508283818126
:1012000021E0280F2183DF01A80FB11D13968C91D7
:10121000203809F411829FBF0895FA013081882394
:1012200069F0E1E0F0E0022E01C0EE0F0A94EAF767
:10123000DB01A30FB11D9C919E2B9C93222319F0DF
:101240008FEF820F0BC081E0830F8C3010F4FA0116
:101250008083FB01E80FF11D108287E090E0089584
:10126000CF93C82F5B9A882319F08091950102C013
:101270008091970120E1829FC0011124E4DC5B98FA
:10128000CC2319F08091940102C08091960120E155
:10129000829FC0011124D7DCCF910895A3E0B0E074
:1012A000E4E5F9E00C94802A5C01162F622E842F6D
:1012B00090E09B838A832091950330919603029658
:1012C000089F802D1124992787FD909528173907AD
:1012D00020F482E892E060DD7DC0281B390B30935A
:1012E000960320939503769A80913E02882341F0DD
:1012F00010923E028AE891E095D3FF24F39401C056
:10130000F12C80918F03811101C0D5DAA9DA812EE9
:10131000912CCC24C394D12C712C512C852D992740
:1013200087FD90958815990524F480E099DF539402
:10133000F5CF112311F081E093DF20E0422E5524F8
:1013400047FC5094EA81FB814E165F062CF097E033
:10135000392E4A0C5B1C1AC087E0282E312C4A0C0F
:101360005B1CC601022C01C0880F0A94EAF7F20147
:1013700090818923298374DFF1E02F1A31082981B4
:101380008FEF2816380669F72F5FD8CF832D99275E
:1013900087FD90956816790664F4C601032C01C098
:1013A000880F0A94EAF7F2019081892359DF3A9471
:1013B000EDCF8E2D4DDC015009F0AFCF809197031A
:1013C000882311F05FDA02C086E3E8D9F1100E94A9
:1013D000AF1676982396E2E10C949C2AADE0B0E03B
:1013E000E4EFF9E00C94832A7C01162F842F022F5E
:1013F0006701C60ED11C462FB70129D3D6018C93A5
:101400001F5F1D8619825E2C670127E066246394A6
:10141000712C8C2D8519811788F547E0A42EB12CED
:101420004701880E911CF3010A2C01C0EE0F0A94AB
:10143000EAF7D4018C91AE01435F5F4FBE016F5F4D
:101440007F4F8E23EADE282FB1E0AB1AB10858F7A0
:10145000D6018D916D01082E82958025082E8695E6
:10146000869580258F5F86958170AE01435F5F4FC3
:10147000BE016F5F7F4FD1DE282FCBCF222311F02B
:10148000215004C08D858F5F8D8727E089E180938F
:1014900096018093970185E2809394018093950152
:1014A0003AE0E32E4D856CE0CE010196F7DE2D96F5
:1014B000EFE00C949F2AADE0B0E0E1E6FAE00C9496
:1014C0008F2A162F242F4BE0BE016F5F7F4F0196AE
:1014D0002D87E7DC2D85412F682FCE0101967EDF19
:1014E0002D96E3E00C94AB2A43E066E0E4CFEF9264
:1014F0000F93CF93DF93CDB7DEB760970FB6F89415
:10150000DEBF0FBECDBF40E1BE016F5F7F4F0196D2
:10151000C8DC69814A810B818C81809397018D8120
:10152000809396018E81809395018F8180939401A1
:10153000E02EE2947FE0E7220F70242F2F70429577
:101540004F70CE010896AADE60960FB6F894DEBF03
:101550000FBECDBFDF91CF910F91EF900895A9E11C
:10156000B0E0E5EBFAE00C94882A4BE0BE016F5F37
:101570007F4F019696DC182F893009F05AC099E107
:1015800090939601909397019093950182E38093B5
:10159000940169E0CE01019664D2E1E0F0E0EC0F45
:1015A000FD1FE10FF11D8083198E1D86CE0101966E
:1015B0007C016E019BE0C90ED11C27E0AA24A394F4
:1015C000B12CEC14FD0429F100E010E0F501002E2F
:1015D00001C0EE0F0A94EAF7D7018C91AE01475E85
:1015E0005F4FBE01635F7F4F8E2317DE282F0F5F93
:1015F0001F4F0830110551F7AE01475E5F4FBE0126
:10160000635F7F4F81E009DE282FBFEFEB1AFB0AF3
:10161000D8CF222311F0215004C0898D8F5F898F8C
:1016200027E0EAE0EE2E03E0498D6CE0CE010D9656
:1016300035DE6996EAE00C94A42AA9E1B0E0E3E281
:10164000FBE00C94872A4BE09E012F5F3F4F79010E
:10165000B901019626DC182F85E38093970196E166
:10166000909396019093950180939401612FC70107
:1016700004D2F701E10FF11D808399249394910E18
:10168000198E1D86870127E0AA24A394B12C802FF0
:101690008E19891508F04AC0C12CD12CF5010C2CEB
:1016A00001C0EE0F0A94EAF7D8018C91AE01475EB3
:1016B0005F4FBE01635F7F4F8E23AFDD282FBFEFEB
:1016C000CB1ADB0A34E0C316D10441F7AE01475E02
:1016D0005F4FBE01635F7F4F81E09FDD282FB4E045
:1016E000CB2ED12CF5010C2C01C0EE0F0A94EAF799
:1016F000D8018C91AE01475E5F4FBE01635F7F4FA3
:101700008E238BDD282FBFEFCB1ADB0A38E0C31600
:10171000D10441F7AE01475E5F4FBE01635F7F4F6B
:1017200081E07BDD282F0F5F1F4FB1CFAAE0EA2EAB
:1017300003E0498D6AE0CE010D96B0DD6996EBE0DD
:101740000C94A32AEF920F93CF93DF9300D000D095
:10175000CDB7DEB743E0BE016F5F7F4F0196A1DBDF
:101760008AE68093970194E29093960191E2909398
:1017700095018093940180E88C839FE0E92E03E03B
:1017800026E043E060E0CE01019688DD0F900F90E7
:101790000F900F90DF91CF910F91EF9008958F925E
:1017A0009F92AF92BF92DF92EF92FF920F931F939F
:1017B000CF93DF931092B3011092C801FC012181F5
:1017C000220F220F220F3381231B57E0520F10925A
:1017D000B40110E070E038E0D32ED20EFF24F39471
:1017E00047E007E0E12CC7E0D0E0A1E0B0E0FD1465
:1017F00009F47FC0FC01EE0DF11D248130E0002EC4
:1018000002C0359527950A94E2F721703327E22F1D
:10181000002311F0015002C0E39407E06B3471F42F
:10182000433009F04AC0111107C0E1115FC01092A6
:10183000B3017093C80174C010E041C04F3F31F54F
:101840006634A9F4E72FF0E0EC54FE4FE0810E2E51
:10185000E295E0250E2EE695E695E025EF5FE1FBAB
:10186000882480F8912C8216930641F004C06534D8
:1018700029F4E11103C01093B301DBCF7F5FE72FA1
:10188000F0E0EC54FE4F108247E031C0EE2361F1EE
:10189000663471F4E72FF0E0EC54FE4FA0809D0118
:1018A000042E01C0220F0A94EAF7A22AA0821CC0CB
:1018B000653439F06B34C1F404C04F3FD1F2EE23EC
:1018C00099F0E72FF0E0EC54FE4F9E01241B310904
:1018D00047FD33955D0102C0AA0CBB1C2A95E2F7B7
:1018E00095013081322B3083415001C011E0F394D7
:1018F0007ECF1093B3017093C8015F1588F46534EF
:1019000031F44F3F21F47F5F7093C80104C0809190
:10191000B3018111F8CF81E09091C801911101C00C
:1019200080E0DF91CF911F910F91FF90EF90DF90BA
:10193000BF90AF909F908F90089510926F00E091AC
:10194000CB018CE1E89FF0011124E453FE4F10829B
:101950000895DC011196EC911197F0E050E02C9184
:10196000CF01841B950B0B964797A0F430E070E0F5
:10197000C901861B970B0B96479760F42E0F3F1FEC
:10198000640F751F261B370B255F3F4F81E0273102
:10199000310508F080E00895FC012181243108F030
:1019A000CCCF3381662381F081E090E0032E01C02B
:1019B000880F0A94EAF7DF01A20FB11D14969C91DB
:1019C0001497982B14969C93332319F0315033833A
:1019D000089587E083832F5F2183E20FF11D148236
:1019E0000895539A5B985298E9E6F0E0808180610F
:1019F000808380E19EE090939603809395031092FC
:101A0000E801109204021092200210928F030895B0
:101A100080919703882321F00E945B040C94420478
:101A20000C945204FC01218121110BC08091970379
:101A300034DA40E265E08091950390919603BDD938
:101A4000B8C941E067E973E001962BDAE1CF44239E
:101A500039F04150FB01E40FF11D9081890FF7CF60
:101A6000089520E0662339F06150FC01E60FF11D76
:101A700030812327F7CF822F0895A091B30140E052
:101A800035E020E0662399F06150FC01E60FF11D7E
:101A90005081752F72957F702727370FAA2311F079
:101AA000442319F05F702527350F4F5FEBCF320FBE
:101AB00040E1349FC0011124822B0895FC01328142
:101AC0002381A081B181A30FB11D8C9190E0022EE2
:101AD00002C0959587950A94E2F7817099274FEF98
:101AE000420F4383211104C03F5F328327E02383E9
:101AF0000895A2E0B0E0EFE7FDE00C94882A7C01B5
:101B0000A12CB12CD12CCC24C394062F10E0015071
:101B10001109A616F0F4C7014A836983CFDF4A8111
:101B20006981882391F0442349F098012A193B09DF
:101B30008C2D01C0880F2A95EAF706C08C2D0A2C3F
:101B400001C0880F0A94EAF7D82A8FEFA81AB80ABA
:101B5000E0CF8D2D2296EAE00C94A42AA4E0B0E018
:101B6000E4EBFDE00C94872A1B8227E02C839C0188
:101B70002C5F3F4F3A8329831092C801FC012181D9
:101B8000338187E090E0831B9109F8E02F9F800D5F
:101B9000911D1124853491050CF44EC0B12CA090F8
:101BA000C801F5E0FA1558F10A2D10E040E068E0B0
:101BB000CE0101969EDF0C541E4FF8018083982EB3
:101BC000092C92949024092C969496949024CE01FA
:101BD000019674DF939491FACC24C0F8D12C90E054
:101BE000C816D90649F5CE01019668DF811124C0D7
:101BF000F8018081B826A394A092C801D0CF40E01C
:101C000068E0CE01019675DF082F182F012E12957E
:101C10001025012E169516951025CE0101964EDF42
:101C20001F5F11FBEE24E0F8F12C282F30E0E216C4
:101C3000F30611F481E0B01280E02496EBE00C94FE
:101C4000A32AA5E0B0E0E7E2FEE00C948B2AFC01B9
:101C50001B8287E08C83CF0104969A83898310923C
:101C6000C8018081853009F04FC02181338187E030
:101C700090E0831B910938E0239F800D911D112472
:101C80008039910509F040C00FE010EF29E88091FC
:101C9000C801E82EF12CDD24D394D80E41E068E091
:101CA0008F3088F4CE0101962D8323DF080F111D9C
:101CB000F701EC54FE4F2D812827208324E2280FC2
:101CC000D092C801E4CFCE01019613DF080F111D99
:101CD000D092C801F701EC54FE4F8095808341E01B
:101CE00068E0CE01019605DF90E0982F8827081B59
:101CF000190B41E068E0CE010196FBDE282F30E0B1
:101D000081E00217130709F080E02596E7E00C94C4
:101D1000A72AA4E0B0E0EFE8FEE00C948D2A1B8235
:101D200027E02C839C012C5F3F4F3A832983FC01E1
:101D300021812430A1F58381813089F51092C80179
:101D40008091C801082F10E0FF24F394F80E41E0C1
:101D5000843098F4811106C067E0CE010196C9DE97
:101D6000806804C068E0CE010196C3DEF801EC543F
:101D7000FE4F8083F092C801E3CF67E0CE01019669
:101D8000B8DEF801EC54FE4F880F8083F092C80152
:101D90009091B40192959F7081E09A3009F080E0B3
:101DA0002496E5E00C94A92AA0E0B0E0EAEDFEE07C
:101DB0000C948A2A809198018823B9F18091970325
:101DC00087FF17C084E30E947F038058803458F057
:101DD000803C58F490E08055910953E095958795A3
:101DE0005A95E1F703C080E001C08FE08F590E944F
:101DF0008D068091970383FF16C082E70E948D06AF
:101E00008091970384FF04C0809199010E948D0600
:101E100086E60E948D068091970384FF04C080911E
:101E200098010E948D06109298018091C901882323
:101E300009F4FCC1769AC091CA012CE1C29FE0016D
:101E40001124C453DE4FCE01FCDE811146C066E48E
:101E5000CE01A5DC882339F11091C80111501093EF
:101E6000C801412F64EB71E086E0F1DDE12FF0E085
:101E7000EC54FE4F0081801302C0143080F5282FEF
:101E800030E02F5F3F4F602F70E02617370721F4B7
:101E9000143010F0808323C0412F64EB71E08CE09C
:101EA000D6DD801731F065E4CE0179DC811105C003
:101EB00018C01430C0F304E501C18091C8018150FD
:101EC0008093C801893069F469E084EB91E0C9DD51
:101ED0009091BD01891305C009C003E5EFC006E478
:101EE000EDC0CE013BDE811109C002C005E4E6C0B1
:101EF000CE010FDF882321F004E7E0C008E4DEC054
:101F0000E09099018E01065E1F4F4B8D6E2DC8012A
:101F100020DD682FCE0140DD6BE4CE0140DC88235C
:101F2000A1F0F090C801FA94F092C8016F2D84EBF3
:101F300091E0A3DDEF2DF0E09091B301E91BF109F1
:101F4000EC54FE4F9081891741F08B81873039F432
:101F50001B8289818150898304C00BE4AFC08F5FED
:101F60008B838981843039F58B81843021F54EE172
:101F70006CE3CE014896EDDC8823E9F04EE16E2D4E
:101F8000C801E7DC682FCE0107DD20E0822F90E05A
:101F9000FC01EC54FE4FDE01A80FB91F14968C9182
:101FA000808381E0820F853010F4282FEFCF80935B
:101FB000C80102E583C000E08091970382FF65C0FD
:101FC00080E70E948D06888140E262E090E00E94F6
:101FD000DD06888D40E265E0F0E18F9FC0011124AD
:101FE0000E94DD06898D40E265E020E1829FC0010C
:101FF00011240E94DD068A8D40E265E0E0E18E9FBB
:10200000C00111240E94DD068B8D40E265E0F0E105
:102010008F9FC00111240E94DD068A8140E263E0A7
:1020200090E00E94DD06898140E263E090E00E943A
:10203000DD062B8140E262E087E090E0821B91099F
:102040000E94DD0680E20E948D068091970385FF45
:1020500008C084E30E947F030E944D0780E20E9433
:102060008D068B81873019F089818F5F898310E01D
:102070008981181740F4FE01E10FF11D84810E944F
:102080004D071F5FF5CF0E94D90618828091C901C4
:1020900081508093C9018091CA018F5F843019F00B
:1020A0008093CA0102C01092CA017698043509F0E3
:1020B000BDC084EB91E00E947D20B8C0A091970341
:1020C000A0FF7ACFA1FD5CC03091B201B091C801F0
:1020D0003B1332C020E0231770F4822F90E041E0E0
:1020E000420FFC01E256FE4F8C549E4F5081FC0182
:1020F0008081581729F02093B20123131DC002C01C
:10210000242FE9CF40919103509192036091930362
:1021100070919403C0909A01D0909B01E0909C0133
:10212000F0909D014C195D096E097F0931E046323E
:1021300051056105710508F030E020E02B1768F4C7
:10214000822F90E0AC0142565E4F8C549E4FFC01B2
:102150008081FA0180832F5FF1CF2093B2014091FB
:102160009103509192036091930370919403409373
:102170009A0150939B0160939C0170939D0101C053
:1021800030E00435E9F4A6FD1BC08091C80185301C
:10219000B8F08091B6018B3409F40ECF893609F47A
:1021A0000BCF9DEA980F923008F406CF8D578230FE
:1021B00008F402CF8091B7018077803709F4FCCE14
:1021C0003111FACE802F0E948D068091B3018823B1
:1021D00029F08091C80181508093C80110E0E091FE
:1021E000C8011E1748F4E12FF0E0EC54FE4F808147
:1021F0000E944D071F5FF3CF8091B301882351F0F8
:10220000F0E0EC54FE4F80818F7040E361E090E09D
:102210000E9413078091970385FF05C084E30E9405
:102220007F030E944D070E94D906C6CECDB7DEB708
:10223000E8E00C94A62A1F920F920FB60F92112479
:102240002F933F934F935F936F937F938F939F93BE
:10225000AF93BF93EF93FF9310926F00809197031A
:1022600083FF03C08EE20E948D068091CB019CE12A
:10227000899FF0011124E453FE4F9081933018F0B0
:102280009181923010F459DB18C09091C9019330BC
:1022900049F48091970382FFF6CF89E892E00E948B
:1022A000CC06F1CF9F5F9093C9018F5F843019F006
:1022B0008093CB0102C01092CB01FF91EF91BF91AF
:1022C000AF919F918F917F916F915F914F913F91CE
:1022D0002F910F900FBE0F901F9018959BED980FA8
:1022E000973150F496EF960F9D3130F491E06817D6
:1022F00008F090E0892F089580E008951F920F92D2
:102300000FB60F9211240F931F932F933F934F9368
:102310005F936F937F938F939F93AF93BF93CF936D
:10232000DF93EF93FF9380914704882321F082E0AD
:102330008093470422C180912404823021F483E0F9
:10234000809324041AC10091840010918500A4E0B8
:1023500016950795AA95E1F7C091CB019CE1C99F1D
:10236000E0011124C453DE4F9881943031F40E32D1
:1023700008F403C10F3448F0A4C0953031F407319C
:1023800008F4FBC0083208F09CC04A990DC0945074
:10239000923038F461E0CE01FFDA1092850010929D
:1023A000840000939901E9C080919901081B009372
:1023B00098011092850010928400888184508230A8
:1023C00020F460E0CE01E8DAD8C082E086BB8881E4
:1023D0000091990181110FC0053608F0CEC080919F
:1023E0009801853608F0C9C0088F898F81E08A83FB
:1023F00082E08883C2C010919801412F602F823003
:1024000009F06FC0CE014896A4DA4A818823F9F01A
:10241000888D90E09C01220F331F280F391F200F59
:10242000311D3595279535952795288F298D30E0D5
:10243000C901880F991F820F931F810F911D9595D8
:10244000879595958795898F4F5F4A8396C04430CD
:1024500008F445C080EA9FE090938900809388004B
:102460008A818C3050F0888D298D30E0280F311D05
:102470002536310524F084E027C08A3088F0888D25
:10248000298D30E0280F311D253231054CF485E0CF
:10249000888388EE93E0909389008093880015C02C
:1024A00080919D03882379F0612F802F17DF882387
:1024B00051F0688D898D12DF882329F081E08093A7
:1024C00024043BDA5AC083E088830A8F1B8F198269
:1024D00087E08B831C8282E080936F004EC018825D
:1024E0007BCFCE014A9635DA882301F161E0CE0137
:1024F00053DA4A8D50E09A01220F331F240F351F03
:10250000200F311D35952795359527952A8F2B8DD1
:1025100030E0C901880F991F820F931F810F911D11
:1025200095958795959587958B8F27C0412F602F1F
:10253000CE0148960EDA882309F4C3CF60E0CE01BD
:102540002BDA488D50E09A01220F331F240F351FDC
:10255000200F311D3595279535952795288F298D85
:1025600030E0C901880F991F820F931F810F911DC1
:102570009595879595958795898FFF91EF91DF9137
:10258000CF91BF91AF919F918F917F916F915F910B
:102590004F913F912F911F910F910F900FBE0F9070
:1025A0001F901895E091CB018CE1E89FF001112478
:1025B000E453FE4F8081811107C081E09091460471
:1025C0009F3F19F480E0089581E0089580E690E04F
:1025D0000E94BA0780939D0381E690E00E94BA07AB
:1025E00080932E04882321F081E28093970310CA00
:1025F00008955B9A0C9423065B980C942306A7E03D
:10260000B0E0E5E0F3E10C948B2A9091A6039435B9
:1026100059F420912704309128042F5F3F4F3093C5
:102620002804209327043EC0963459F420912504B1
:10263000309126042F5F3F4F3093260420932504CA
:1026400031C0953459F420919A0330919B032F5F48
:102650003F4F30939B0320939A0324C09B3459F43B
:1026600020912A0430912B042F5F3F4F30932B048D
:1026700020932A0417C0983459F420912C043091E7
:102680002D042F5F3F4F30932D0420932C040AC05C
:1026900020919803309199032F5F3F4F3093990316
:1026A0002093980395E79983882399F0BE016E5F84
:1026B0007F4F80912E040E94A207BE016C5F7F4F66
:1026C00080919D030E94A20785E58E8386E0D82E27
:1026D00002C0DD24D3940E945B040E94300416E003
:1026E00080E891E086DF80E093E086DF1150C1F75B
:1026F00080E093E07EDF80E891E07EDF80E891E09B
:1027000078DF5B9887E390E00E94D20383E00E9429
:10271000280628988FE70E940B038091A0038D0D57
:102720000E940B03CE0101967C018C01F80181917E
:102730008F010E940B03802F8E198D15B8F38091A5
:10274000A003882339F08EE993E00E94F7080E94E5
:102750000B03F5CF289A0E9430048EE993E00E9483
:10276000DC0815E18AE30E947F038F7731F0115076
:1027700021F081E00E942806F5CF4AD92796E7E0AC
:102780000C94A72ACF93DF93EC018981811107C0B4
:1027900080919D030E944D0780912E0413C08436C2
:1027A000A1F48091910390919203A0919303B09131
:1027B000940340E364E00E9413078EE20E948D06BA
:1027C000809123040E944D074DC0833709F04DC00E
:1027D00040E361E080912704909128040E94130750
:1027E0008EE20E948D0640E361E080912504909185
:1027F00026040E9413078EE20E948D0640E361E0EA
:1028000080919A0390919B030E9413078EE20E948D
:102810008D0640E361E080912A0490912B040E9490
:1028200013078EE20E948D0640E361E080912C0444
:1028300090912D040E9413078EE20E948D0640E3C2
:1028400061E080919803909199030E9413078EE2B2
:102850000E948D0640E361E0809121049091220462
:102860000E9413070E94D9062CC08936D9F441E092
:102870006DE973E0CE0102960E94510760919D03BD
:1028800080E690E00E94B50741E06EE274E0CE0180
:1028900004960E94510760912E0481E690E00E9408
:1028A000B5070FC08EE993E00E94DC08219669917C
:1028B000662329F08EE993E00E94E108F8CF80E0DA
:1028C0009EDEDF91CF910895A1E0B0E0EAE6F4E169
:1028D0000C948A2A80912404882309F484C0C0902F
:1028E0009103D0909203E0909303F090940383308F
:1028F00009F060C08FE30E947F03182F8630C8F074
:102900008BEC94E00E94DC0828988FEF0E940B0368
:1029100080E00E940B03082F115049F080E00E94D4
:102920000B03682F8BEC94E00E94E108F5CF289A06
:1029300001C000E06DD810922404053709F053C09F
:1029400041E0BE016F5F7F4F8EEC94E00E94510723
:10295000019759F5998180919D03981326C0809124
:10296000D204853571F48091CD04882339F08BEC45
:1029700094E00E94F7080E948D06F5CF0E94D906C8
:1029800032C08091CD0484508093CD0484E0809344
:10299000CC046AE08BEC94E00E94E108E0918D03A6
:1029A000F0918E0388E009951EC08BEC94E00E94A4
:1029B000DC0819C0823051F480919C039C2D981B37
:1029C000983088F025D8109224040DC0813059F435
:1029D00087E390E00E94D2030E94420482E0809349
:1029E0002404C0929C032196E8E00C94A62ADADD28
:1029F000882361F083E080932904809121049091E1
:102A0000220401969093220480932104809129044A
:102A1000815080932904882321F083E0809323044C
:102A2000089581E0ECCDCF93DF93EA98209A289A1D
:102A30008EE190E00E94230628988EE190E00E94AB
:102A40002306289A8DE290E00E94230680E30E94EC
:102A5000CE0384E690E00E942306C6EAD2E0FE019F
:102A600031966491FE0184910E94BC032296F2E0AB
:102A7000C83DDF07A1F780913D02811107C083E3C4
:102A80000E94CE0384E00E9428060FC0C0E9D2E075
:102A9000FE0131966491FE0184910E94BC0322964E
:102AA000F2E0C63ADF07A1F7EACF84E30E94CE0343
:102AB00085E30E947F038D30C1F7DF91CF910895A8
:102AC000A2E3B0E0E6E6F5E10C948E2A80913C02A8
:102AD000882309F4A1C04A9B8AC08FE30E947F0328
:102AE0008F778983823368F08AE30E94CE0386E37E
:102AF0000E94CE038DE30E94CE0384E30E94CE03A6
:102B00008BC028988FEF0E940B0310E08981181763
:102B100060F480E00E940B03E2E0F0E0EC0FFD1FA8
:102B2000E10FF11D80831F5FF1CF80E00E940B0356
:102B3000082F80E00E940B03289A84E30E94CE03B2
:102B400085E30E947F038D30C1F72A8196E79227A3
:102B50009A8392E08981E92FF0E0981768F441E0C8
:102B600050E04C0F5D1FE40FF51F308124522327E6
:102B700020839F5F232FEECF81E090E08C0F9D1F7D
:102B8000E80FF91F90818B8198279083809197039C
:102B900084FF12C081E60E948D0610E089818117B2
:102BA00030F1E1E0F0E0EC0FFD1FE10FF11D80815D
:102BB0000E948D061F5FF2CF81E40E948D0610E017
:102BC0008981811758F0E1E0F0E0EC0FFD1FE10F83
:102BD000F11D80810E944D071F5FF2CF8091970306
:102BE00085FF03C0802F0E944D070E94D90685E310
:102BF0000E947F03813029F0813161F48AE30E94D1
:102C0000CE0386E30E94CE038DE30E94CE0384E3CD
:102C10000E94CE030E94A204E296E4E00C94AA2A49
:102C2000A2E3B0E0E6E1F6E10C948A2A41E38E01EA
:102C30000F5F1F4FB80101960E9451076C019C0164
:102C4000332721503109898190E02817390709F08D
:102C50006AC080913C02811104C0E5DE83E00E94DD
:102C60002806FB808A8196E789278A8392E08981FA
:102C7000292F30E0F801E20FF31F981750F4DE011E
:102C8000A20FB31F8C9184522081822780839F5F83
:102C9000EECF80818F25808385E30E94CE0385E37C
:102CA0000E947F038331C1F7F4FE08C088E70E94C9
:102CB000280688E70E94280688E701C08AE00E946B
:102CC000280628988FE70E940B0378018E2D801B21
:102CD0008C1530F4F70181917F010E940B03F6CF30
:102CE000289A85E30E947F038331D9F385E30E940C
:102CF0007F03863149F48BE30E94CE0386E30E9472
:102D0000CE038DE30E94CE0380913C02882349F0DC
:102D100084E30E94CE0385E30E947F038D30C1F7D8
:102D200002C00E94080DE296E8E00C94A62AFC017D
:102D30002181223731F0223559F481E080933D0220
:102D400002C010923D026FDE81E080933C02089544
:102D5000233711F4019664CF10923C020895CF936B
:102D6000DF93EA98209A289A8EE190E00E94230649
:102D700028988EE190E00E942306289A8DE290E048
:102D80000E94230680E30E94CE0384E690E00E9426
:102D90002306C1EFD2E0FE018491813440F083E349
:102DA0000E94CE0384E00E942806CFEF0BC0FE01F4
:102DB000319664910E94BC032296F3E0CD32DF0786
:102DC00051F7EDCF84E30E94CE038AE090E00E94A9
:102DD0002306C150B9F781E080933E02DF91CF9185
:102DE0000895EF92FF920F931F93CF93DF93EC011F
:102DF0008B01F880F3946115710519F0E4E6F0E0B9
:102E000002C0E0E0F0E028E0F29EC00111246AE098
:102E100070E00E946D2A9B012E0F3F1FC901AA2757
:102E200097FDA095BA2FE0919503F0919603AF011D
:102E300060E070E0481759076A077B0728F481EEC5
:102E400092E00E94CC06D9C0E21BF30BF0939603EC
:102E5000E093950380913E02811101C080DF85E3FC
:102E60000E947F038D3071F08AE50E948D0685E413
:102E70000E948D0682E50E948D0682E50E948D06E5
:102E800081E34CC080913F0290914002A0914102A9
:102E9000B0914202892B8A2B8B2B51F50E94300472
:102EA00085E30E947F03833109F443C08AE50E94D1
:102EB0008D0685E40E948D0682E50E948D0682E5DE
:102EC0000E948D0682E32AC0809191039091920323
:102ED000A0919303B09194034F5F5F4F6F4F7F4F6B
:102EE00084179507A607B707C9F681E00E94280650
:102EF0008091910390919203A0919303B0919403D8
:102F000040913F0250914002609141027091420213
:102F100084179507A607B707B9F6E7CF0E948D0675
:102F200085E30E947F030E944D070E94D90617DFA8
:102F300064C0012B41F428988FE70E940B03EC2E0C
:102F40000C2F1D2F0BC00AE010E084E60E9428061B
:102F50000150110901151105C1F7EDCF802F8E1910
:102F60008F1530F4F80181918F010E940B03F6CF89
:102F7000289AC8EC85E30E947F038D30E9F485E34D
:102F80000E947F038D3019F18AE50E948D0685E449
:102F90000E948D0682E50E948D0682E50E948D06C4
:102FA00083E30E948D0685E30E947F030E944D0704
:102FB0000E94D906D4DE0BC085E30E947F038331D3
:102FC000F1F681E00E942806C150A1F6D8CF809189
:102FD0003E02811102C00E94080D809191039091E0
:102FE0009203A0919303B091940380933F02909336
:102FF0004002A0934102B0934202CDB7DEB7E6E0B3
:103000000C94A82AACE0B0E0E8E0F8E10C948F2A38
:10301000FC018BE0898381818A831B8282E08C831F
:1030200087818D8380858E8381858F838481888746
:103030008581898786818A871B861C8684E10E9418
:10304000280660E070E0CE010196CBDE8AE50E94A2
:103050008D0610E0812F90E0298130E02817390794
:103060005CF0E1E0F0E0EC0FFD1FE80FF91F80815C
:103070000E944D071F5FEECF8091970385FF03C02D
:1030800080E00E944D070E94D9062C96E3E00C9444
:10309000AB2ACF93DF93EC0180914602811108C0E7
:1030A00090914702911104C090914802911115C06E
:1030B0009B81903319F09F7E903479F49F8198130F
:1030C0000CC0988580914702981307C0998580911C
:1030D0004802981302C0CE0195DF8091430281110E
:1030E00008C090914402911104C090914502992327
:1030F000A9F098819B3091F49B81903479F49F8161
:1031000098130CC0988580914402981307C0998544
:1031100080914502981302C0CE0174DFDF91CF91F8
:103120000895AEE1B0E0E7E9F8E10C948E2A8091D1
:103130003E02882309F469C04A9B59C08FE30E946C
:103140007F038F778E3108F08DE1898328988FEF88
:103150000E940B0310E08981181760F480E00E9440
:103160000B03E2E0F0E0EC0FFD1FE10FF11D8083A7
:103170001F5FF1CF80E00E940B03082F80E00E94C8
:103180000B03289ACE01019684DF8091970384FF78
:1031900012C08AE70E948D0610E089818117A8F18C
:1031A000E1E0F0E0EC0FFD1FE10FF11D80810E94D6
:1031B0008D061F5FF2CF8AE50E948D0610E089819F
:1031C000811758F0E1E0F0E0EC0FFD1FE10FF11D79
:1031D00080810E944D071F5FF2CF8091970385FF8A
:1031E00003C0802F0E944D070E94D9060EC085E3C0
:1031F0000E947F03813149F48AE30E94CE0386E373
:103200000E94CE0384E30E94CE036E96E4E00C9409
:10321000AA2AAEE1B0E0EFE0F9E10C948E2A8C012D
:10322000FC018181823711F49ADD36C0833711F0B9
:10323000863601F54DE1BE016F5F7F4FC8010296F2
:103240000E94510799270197298130E0821793073F
:1032500029F088ED92E00E94CC061EC061E070E08B
:10326000F8018181833711F060E070E0CE010196B2
:10327000B8DD12C0813621F443E066E472E005C097
:10328000873741F443E063E472E0C80102960E948C
:10329000510702C010923E026E96E4E00C94AA2AF6
:1032A000CF93DF93EA98209A289A8EE190E00E94CB
:1032B000230628988EE190E00E942306289A8DE24A
:1032C00090E00E94230680E30E94CE0384E690E013
:1032D0000E942306CDE2D3E0FE018491813448F0C0
:1032E00083E30E94CE0381E00E942806DF91CF9104
:1032F0000895FE01319664910E94BC032296F3E08A
:10330000C936DF0749F7ECCFAEE1B0E0EAE8F9E112
:103310000C948E2A80914902882309F474C04A9B38
:103320005FC08FE30E947F038F778E3108F08DE1BD
:10333000898328988FEF0E940B0310E0898118176A
:1033400060F480E00E940B03E2E0F0E0EC0FFD1F70
:10335000E10FF11D80831F5FF1CF80E00E940B031E
:10336000082F289A8AE30E94CE0386E30E94CE03A8
:103370008DE30E94CE0384E30E94CE0380919703E5
:1033800084FF12C087E70E948D0610E089818117B3
:10339000D0F1E1E0F0E0EC0FFD1FE10FF11D8081C5
:1033A0000E948D061F5FF2CF87E50E948D0610E018
:1033B0008981811758F0E1E0F0E0EC0FFD1FE10F8B
:1033C000F11D80810E944D071F5FF2CF809197030E
:1033D00085FF03C0802F0E944D070E94D90613C0AD
:1033E00085E30E947F03813011F0813161F48AE32B
:1033F0000E94CE0386E30E94CE038DE30E94CE039B
:1034000084E30E94CE036E96E4E00C94AA2AFC01A9
:103410008181823729F444DF81E080934902089555
:10342000833711F0109249020895CF93DF93EA9801
:10343000209A289A8EE190E00E94230628988EE137
:1034400090E00E942306289A8DE290E00E942306D5
:1034500080E30E94CE0384E690E00E942306289831
:1034600080E40E940B03C9E6D3E0FE0184910E9430
:103470000B032196F3E0C637DF07B9F78091080107
:103480000E940B03809109010E940B0380910A01A5
:103490000E940B03C0E0D0E0FE01E758FC4F84918E
:1034A0000E940B032196C931D105B1F7289A2898BB
:1034B0008EE70E940B038BE290E0EC0121960E94C4
:1034C000BA070E940B03C333D10511F0CE01F5CF2B
:1034D000289A83E30E94CE0381E00E94280681E0BF
:1034E00080938F03DF91CF910895EF92FF920F9316
:1034F0001F93CF93DF93EC018981843769F46DE0EA
:1035000071E0CE0102960E94870740E260E0809160
:103510000D0190910E0112C0833709F0FBC08A8122
:10352000823789F46BE071E0CE0103960E94870731
:1035300040E260E080910B0190910C010E94DD0659
:103540000E94D90651C1769A80914C02811116C011
:1035500080913C02882329F081E080934B021092F5
:103560003C0280913E02882329F081E080934A0248
:1035700010923E025ADF83E00E94280686E30E94F2
:10358000CE038AE30E94CE038BE30E94CE030E9407
:103590003004F12C229680910B0190910C012F2D7B
:1035A000332727FD30952817390708F07CC08E0196
:1035B000EE24E394F80181918F015B9A803321F529
:1035C00080910D0190910E010E9423065B988091DD
:1035D0000D0190910E019C01220F331F820F931F4A
:1035E0000E9423065B9A80910D0190910E010E942A
:1035F00023065B9880910D0190910E019C01220F92
:10360000331F820F931F36C0813389F480910D01DF
:1036100090910E019C01220F331F820F931F0E9475
:1036200023065B9880910D0190910E0110C080914E
:103630000D0190910E010E9423065B9880910D016F
:1036400090910E019C01220F331F820F931F0E9445
:1036500023065B9A80910D0190910E019C01220F2F
:10366000331F820F931F0E9423065B9880910D01E8
:1036700090910E010E942306E394FDE0EF129ACF91
:103680005B9A80910D0190910E010E9423065B9838
:103690001FE180910D0190910E010E9423061150AF
:1036A000C1F7F39478CF80914C02882341F0809148
:1036B000970381110EC086E30E94CE0317C080914C
:1036C0004B02882349F010924B02ADD981E08093E0
:1036D0003C020E9442040AC080914A02882321F0E1
:1036E00010924A023CDB02C00E94080D769889E6DF
:1036F0000E948D0683E70E948D0611E08991803338
:1037000019F0813309F086E40E948D061F5F1D3099
:10371000A9F716CF8237B9F480913C02882329F0AB
:1037200081E080934B0210923C0280913E028823FC
:1037300029F081E080934A0210923E0276DE81E019
:1037400080934C0251C0863651F58A81803351F402
:1037500080E18093080180EB8093090181E78093E9
:103760000A0107C043E068E071E0CE0102960E94C2
:10377000510789E60E948D0686E60E948D068AE33F
:103780000E948D06809108010E944D0780910901D9
:103790000E944D0780910A010E944D07D1CE8837C3
:1037A00019F580914B02882339F010924B023BD9D6
:1037B00081E080933C0210C080914A02882321F06E
:1037C00010924A02CCDA0EC082E090E00E94D2034E
:1037D00080919703882319F00E94420403C086E376
:1037E0000E94CE0310924C02CDB7DEB7E6E00C94F7
:1037F000A82AA2E0B0E0EFEFFBE10C94852A7C015F
:10380000FC018181833709F086C1198287E090E04D
:103810000E94BD2A8C0141E0BE016F5F7F4FC7014E
:1038200002960E9451078981F801808341E0BE0120
:103830006F5F7F4FC70104960E9451072981207F47
:10384000F801218341E0BE016F5F7F4FC7010696FB
:103850002A830E9451078981F801828341E0BE01D9
:103860006F5F7F4FC70108960E9451078981F80159
:10387000838341E0BE016F5F7F4FC7010A960E94BC
:1038800051078981F801868341E0BE016F5F7F4F58
:10389000C7010C960E9451078981F801858341E098
:1038A000BE016F5F7F4FC7010E960E94510789814D
:1038B000F801848380E090E02A814191342F329591
:1038C0003F70342783279F5F9730B9F78F70822B23
:1038D000F8018183D8011196C80106963D91219186
:1038E00023272083E817F907C9F7769A80914F02BA
:1038F000811160C080913C02882329F081E080938F
:103900004E0210923C0280913E02882329F081E011
:1039100080934D0210923E02EA98209A289A8EE1F6
:1039200090E00E94230628988EE190E00E942306F2
:10393000289A8DE290E00E94230680E30E94CE0345
:1039400084E690E00E942306289880E40E940B03FE
:1039500062E9E62E63E0F62EF70184910E940B03E4
:10396000FFEFEF1AFF0A2BEBE21623E0F206A1F7B6
:10397000289A28988EE70E940B038BE290E07C0146
:10398000EFEFEE1AFE0A0E94BA070E940B03F3E360
:10399000EF16F10411F0C701F2CF289A83E30E94D9
:1039A000CE0381E00E94280681E080938F0383E0AC
:1039B0000E94280686E30E94CE038AE30E94CE037B
:1039C0008BE30E94CE030E9430045B9A87EC94E262
:1039D0000E9423065B9889E50E94280685E392E011
:1039E0000E942306912C8091130190E0292D33270A
:1039F00027FD3095281739070CF057C0911002C0E9
:103A000022E001C027E0F12C5B9A86EF99E02A833F
:103A10000E9423065B9886EF99E00E942306F394A8
:103A20002A81F2168CF35B9A8CEF92E10E942306B6
:103A30005B9880910F01909110010E94230668010C
:103A4000812CF601A1906F0148E0742E50E8E52E1C
:103A5000F12CB12CC7018A219B21892B49F45B9A57
:103A600080910F01909110010E9423065B9808C07D
:103A70005B9880910F01909110010E9423065B9A40
:103A800080910F01909110010E942306F694E79413
:103A90007A9401F78394F7E08F12D3CF5B9880E09C
:103AA00090E00E94230693949ECF80914F0288233A
:103AB00041F08091970381110FC086E30E94CE03ED
:103AC00018C080914E02882351F010924E020E943D
:103AD000131581E080933C020E9442040AC0809149
:103AE0004D02882321F010924D0239D902C00E9464
:103AF000080D769889E50E948D0683E70E948D0661
:103B0000F12CF80181918F010E944D07F394F7E0A9
:103B1000FF12F7CF18C08237C9F463E171E0C70123
:103B200002960E94870789E50E948D0682E70E941F
:103B30008D068AE30E948D068091130140E260E0C9
:103B400090E00E94DD060E94D90653C0843759F5E3
:103B5000F7018281803339F488ED94E0909312016B
:103B60008093110106C061E171E0C70102960E94D5
:103B700087078091110190911201969587959093F6
:103B8000100180930F0189E50E948D0684E70E9451
:103B90008D068AE30E948D0640E266E08091110165
:103BA00090911201CECF883721F580914E02882363
:103BB00041F010924E020E94131581E080933C0266
:103BC00010C080914D02882321F010924D02C7D879
:103BD0000EC082E090E00E94D20380919703882378
:103BE00019F00E94420403C086E30E94CE031092A3
:103BF0004F022296EDE00C94A12A1092310410920B
:103C0000060383E0809350028FEF8093460408956B
:103C1000E1E5F2E02081211105C0892BB1F080E0BF
:103C200090E00895B2E0EF3FFB07B8F7009751F03E
:103C30004181DC013C91431305C0428111963C91C6
:103C4000431751F0E20FF11DE5CF32E0EF3FF307EC
:103C500019F010F0EFEFF2E0CF01089580E093E06B
:103C6000D7DF009799F020915002FC013081231793
:103C700068F4E20FF11D80818093020389E780934D
:103C8000030381818093040381E0089580E0089517
:103C9000EF92FF921F93CF93DF931F92CDB7DEB7C2
:103CA000182F8091970386FF18C084E599830E949E
:103CB0008D06E12E9981F92E15E0F70181917F01A2
:103CC0000E944D071150C9F78091970385FF03C0EB
:103CD0008AEF0E944D070E94D9060F90DF91CF9185
:103CE0001F91FF90EF90089586E30E94CE0380918C
:103CF0000203833511F48BE901C08BE40E9428068E
:103D000021E04CE065E080E093E00E94EE090E9433
:103D1000420480E093E0BCCFE7DF80910203893664
:103D200031F081E08093FF0289E280934604089598
:103D300085E390E00E94BA0780932F0486E390E029
:103D40000E94BA07809345048FEF809335048093D7
:103D500037048093390480933B0480933D0480931F
:103D60003F04809341048093430447DF1092510243
:103D70000895A7E0B0E0EFEBFEE10C94892A6C0116
:103D80008C010F5F1F4F45E0BE016F5F7F4FC80181
:103D90000E945107E981843008F0B8C0E130A9F4ED
:103DA000833061F46A8185E390E00E94B5076B81FE
:103DB00086E390E00E94B507BBDF2EC180912F04FF
:103DC0000E944D07809145049CC0E23009F051C02B
:103DD000813039F081E09A81913009F080E0F82E4D
:103DE00002C0FF24F39480915102811104C08BEB37
:103DF00093E00E94CC0601E512E0F801808188235F
:103E000009F481C0F2E00F3F1F0708F07CC032E0E8
:103E10000135130719F080E20E948D06F8018181B7
:103E20000E944D07F80182810E944D07FF20E1F0BA
:103E30008AE30E948D0693E0F80180819817A0F430
:103E4000943038F090FF05C08CE29F830E948D066D
:103E50009F81EE24E394E90EF801E90FF11D8081C2
:103E60000E944D079E2DE8CFF8018081080F111D9B
:103E7000C4CFE33049F480E090E0CADE815592403F
:103E80009EEA981B892F3DC0E03181F505E314E0DF
:103E900096E3E92E94E0F92EC12CD12CF801808113
:103EA0008F3FA1F0DD2019F080E20E948D068C2D5D
:103EB0000E944D078AE30E948D06F80180810E94CE
:103EC0004D07F70180810E944D07D3940E5F1F4F6D
:103ED000C394F2E0EF0EF11C38E0C312DFCFD11033
:103EE00012C085EC93E00E94CC060DC0E13159F47C
:103EF00080913304909134046DE770E00E94592A58
:103F0000862F0E944D070E94D90686C080912F04FB
:103F1000E817C0F190E0F0E09C01295F3F4F2E17B9
:103F20003F0784F13A812091450432132BC03C8134
:103F30003F3231F442E06CE0C6010E945B0A6CC083
:103F40002D813C32B1F42093320481E090E09093D3
:103F50003404809333048091950390919603E4E0B8
:103F60002E9F800D911D11249093960380939503AD
:103F700053C0E81BF90BEE0FF0E0EB5CFB4F308316
:103F800021834AC080E090E043DE7C01F80101908B
:103F90000020E9F73197E01BF10BF695E795BB247C
:103FA000B394BE0EC7018B0D911D815592408F3A7F
:103FB000910574F5F701B1928F0121E0822F880FEE
:103FC00081502B15D8F441E0B801F601E80FF11D3E
:103FD000CF012F830E9451072F81233058F020FDFD
:103FE00009C0D80111978C91843621F4F8018081A1
:103FF000809330042F5F0F5F1F4FE0CFFFEFEF166E
:10400000F2E0FF0648F4F701E20FF11D108204C050
:104010008FEB93E00E94CC062796E9E00C94A52A4A
:10402000A6E0B0E0E6E1F0E20C948C2A2091450491
:104030002A831B8280913204882341F0833019F453
:1040400087E791E00FC08DE790E00CC0277030E06B
:104050002A513F4F4DE7429FC001439F900D1124CD
:1040600095958795909334048093330406E314E088
:10407000F12C2CE2E22EF801319790819F3FC1F0A4
:1040800080912F048F0D898380913204882311F051
:10409000EC8203C09C83F80180818D8321E04CE099
:1040A00065E0CE0101960E94EE09CE010196F0DD99
:1040B000F3940E5F1F4FF8E0FF12DDCF80913204C2
:1040C000882341F0833019F41092320403C08250E7
:1040D000809332042696E6E00C94A82A8091FF0291
:1040E000882351F001DE89E2809346048091FF022B
:1040F00081508093FF02089580CDFF920F931F930C
:10410000CF93DF93FC01F0800181C281D3811481C0
:104110008FE5809346041092FF0280912F04811155
:1041200005C080914504882309F4A9C0809100034B
:104130008F1104C080910103801729F05EDDF09299
:10414000000300930103809131048F3F09F497C06D
:10415000C0930203D093030310930403CC23F1F024
:1041600081111CC080912F04181761F0143651F092
:104170008DEA8C0F823010F0CD3739F48FEF8093B9
:1041800031047DC0C43509F47AC08D2F807F80361C
:1041900009F075C0D067D093030357C05FDD81116C
:1041A00005C080913104882309F469C08091060319
:1041B000811107C0E0913104F0E0E753FC4FE49136
:1041C00001C0E82FE33541F4C43531F49091310456
:1041D0009E5F9093310404C0EC1711F00EDD4FC0C8
:1041E000882369F0809150028E5F8093500236DD03
:1041F00081110EC0809131048E5F809331048091D3
:104200003104E82FF0E0E653FC4F14911F3F59F4BE
:1042100080910203809306038436B9F480913004C0
:104220008093040312C01093020397E79093030353
:1042300090912F04909304038E5F80933104109229
:1042400006038E3021F01123D1F066DD18C080E026
:1042500093E0DEDCDC01009781F02C9130E08FEF01
:1042600092E0821B930BA817B90730F4ED01C20F3F
:10427000D31F48814D93F7CF1C92BFDCE4CFCDB75D
:10428000DEB7E5E00C94A92AFF920F931F93CF931A
:10429000DF938C01EC0109900020E9F72197C81BFE
:1042A000D90BFC018181823751F487E390E00E94B1
:1042B000D2030E94420481E08093470427C08337E1
:1042C00019F5FC2E28988FE70E940B038C2F825043
:1042D0000E940B03E801229612E01F1528F4899131
:1042E0000E940B031F5FF9CF289A0E9430048AE3D3
:1042F0000E947F038F7729F084E690E00E942306D6
:10430000F6CF0E94420402C010924704CDB7DEB738
:10431000E5E00C94A92AA0E8B0E0E1E9F1E20C9410
:104320008A2A80914704882309F454C0813011F50A
:104330008091910390919203A0919303B091940383
:1043400020910703281709F445C085E30E947F03E5
:10435000813129F48AE30E94CE030E9442048091B5
:10436000910390919203A0919303B0919403809351
:10437000070330C08FE30E947F03D82E87FD27C03C
:1043800028988FEF0E940B038E010F5F1F4F78015B
:10439000C02E8E2D801B8D1538F480E00E940B03FB
:1043A000F70181937F01F5CF289A81E080939201F4
:1043B000802F8C198D1530F4F80181918F010E94A6
:1043C0008D06F6CF0E94D9068FEF8093920181E08F
:1043D00080934704C058DF4FE8E00C94A62A0F935F
:1043E0001F93CF93DF93EC0110E0812F90E09C01AD
:1043F000220F331F280F391FF901E054FF4F04919A
:104400002F533F4FF90145915491002399F0209784
:1044100039F480E20E948D06802F0E948D0608C02C
:104420008881801305C0CE01FA01099581E003C09F
:104430001F5FDBCF80E0DF91CF911F910F91089537
:10444000CF93C0919201809392018091CD048823F3
:10445000A1F18BEC94E00E94F708E09108038A3008
:1044600011F08D30F9F4EE2381F3F0E0E75FFC4FBB
:10447000108289E093E0B3DF811111C08FEE93E0E9
:104480000E94CC0689E093E00E94C10687ED93E08C
:104490000E94CC0680E090E0A2DF0E94D906109234
:1044A0000803D3CFE7FDD1CF91E09E0F909308038F
:1044B000F0E0E75FFC4F8083C8CFC0939201CF91BB
:1044C0000895E4E6F0E080818B7F8083299A84B1AF
:1044D000876084B9239880E58CBD8DB581608DBDE2
:1044E00008952091D2083091D3082115310521F487
:1044F00020911601309117018091140190911501BE
:10450000009741F48DB79EB7409118015091190161
:10451000841B950B2817390718F4821B930B0895F9
:1045200080E090E0089582E40E948D0640E265E01C
:104530008091D2089091D3080E94DD060E94D9068E
:1045400083E50E948D0640E265E08091160190911E
:1045500017010E94DD060E94D90685E40E948D069F
:1045600040E265E080911401909115010E94DD0602
:104570000E94D90686E40E948D06B3DF40E265E022
:104580000E94DD060C94D906A2E0B0E0E9ECF2E26C
:10459000C7C7E3E5F5E08091F100819385E0EB3555
:1045A000F807C9F72091530530915405832F90E007
:1045B0008A30910508F01AC1FC01EA5AFF4FD7C7AB
:1045C000203879F0223809F011C180915705809385
:1045D000E9008091EB0085FB882780F91092E900C3
:1045E00006C080914E0590914F0591118260909187
:1045F000E800977F9093E8008093F1001092F1001B
:104600008091E800982F9E7F9093E8008F778093A9
:10461000E8008091E80082FDAFC0809152058111D1
:10462000F8CFD5C0822F8D7F09F0E0C0222319F08A
:10463000223061F033C080915505813009F0C7C048
:10464000333009F080E080934F0528C080915505F4
:10465000811124C020915705277009F4B8C0209318
:10466000E9008091EB0080FF19C08091EB003130B0
:1046700091F480618093EB0081E090E0022E01C014
:10468000880F0A94EAF78093EA001092EA0080917A
:10469000EB00886001C080628093EB001092E9001B
:1046A0008091E800877F8093E8008091E800982F50
:1046B0009E7F66C021119AC0209155058091E80027
:1046C000877F8093E8009091E800892F8E7F809308
:1046D000E8009F779093E8008091E80080FD05C096
:1046E000809152058111F8CF72C0822F8F77982F59
:1046F00090689093E300882309F469C083E0809375
:10470000520565C02058223008F070C0AE014F5FDE
:104710005F4F6091570580915505909156050E9415
:10472000D102009709F453C02091E800277F20931D
:10473000E800BC0189819A812CD11EC0203809F083
:1047400055C08091E800877F8093E80080915005F4
:104750008093F1008091E800982F9E7F9093E8006D
:104760008F778093E8008091E80082FD05C08091FA
:1047700052058111F8CF2BC08091E800982F9B7FC4
:104780009093E8008F778093E80021C021112EC01C
:10479000909155059230D8F48091E800877F8093FE
:1047A000E800909350058091E800982F9E7F9093A9
:1047B000E8008F778093E80080915005882311F0FE
:1047C00084E001C083E0809352050E94200580911F
:1047D000E80083FF0EC08091EB0080628093EB00C5
:1047E0008091E800877F8093E80003C00E9438052D
:1047F000EECF2296E2E0B0C68093E900EBEEF0E067
:10480000808181608083EDEEF0E010826093EC00A7
:1048100040838091EE00881F8827881F089510929A
:10482000F40080E08093E9001092F0001092E8001C
:104830009091ED009D7F9093ED009091EB009E7F15
:104840009093EB008F5F873069F70895809153054F
:1048500087FD05C08091E80080FF0FC013C08091E4
:10486000E80082FD05C0809152058111F8CF0895BE
:104870008091E800982F9B7F09C08091520581119B
:10488000E9CF08958091E800982F9E7F9093E800EB
:104890008F778093E800089585E69091EC0090FF73
:1048A00005C09091E80090FF05C019C09091E80004
:1048B00092FD15C090915205992399F09091EB00CB
:1048C00095FD11C09091E10092FFE7CF9091E1003A
:1048D0009B7F9093E100815001F783E0089580E091
:1048E000089582E0089581E008954091590550911E
:1048F0005A059B014617570708F49A0160E02115F5
:104900003105D9F14091E80043FD3FC04091E800F6
:1049100042FF06C08091E80082FF32C080E0089527
:1049200040915205442399F14091E80040FFE7CFC0
:10493000FC01CF012115310569F04091F200509141
:10494000F3004830510530F481918093F1002150FB
:104950003109EFCF4091F2005091F30061E048300F
:10496000510509F060E04091E800542F5E7F5093BC
:10497000E8004F774093E800C2CF6111C3CFCACFA0
:10498000809152058111C6CF02C081E0089582E076
:1049900008954091590550915A059B0146175707B4
:1049A00008F49A0160E02115310509F43CC04091FA
:1049B000E80043FD40C04091E80042FF06C08091FE
:1049C000E80082FF33C080E00895409152054423FF
:1049D000A1F14091E80040FFE6CFFC01CF01211595
:1049E000310571F04091F2005091F30048305105CB
:1049F00038F484918093F100215031093196EECF43
:104A00004091F2005091F30061E04830510509F007
:104A100060E04091E800542F5E7F5093E8004F77AC
:104A20004093E800C0CF6111C2CFC9CF8091520539
:104A30008111C5CF02C081E0089582E0089561151B
:104A4000710581F12091E80023FD31C020915205CC
:104A5000222389F12091E80022FFF4CFFC0180910C
:104A6000F2009091F300892B71F09F012F5F3F4F6F
:104A7000C9014091F10040836150710961157105D0
:104A800019F0F901ECCFCF012091E800322F3B7FE4
:104A90003093E8002F772093E800D1CF8091520522
:104AA000882349F08091E80080FFF8CF02C081E0C0
:104AB000089580E0089582E0089567D06ED0109246
:104AC00052051092500510924F0510924E058AE43F
:104AD00082BF19BC89B5826089BD09B400FEFDCFD3
:104AE0008091D800982F9F779093D800806880930A
:104AF000D8008091D70081608093D7008091D80042
:104B00008F7D8093D8008091E0008B7F8093E000C0
:104B10008091E0008E7F8093E0008091E1008E7FA5
:104B20008093E1008091E20081608093E2008091B7
:104B3000E100877F8093E1008091E20088608093AC
:104B4000E2008091D80081608093D8000895B5DF9D
:104B5000E8EDF0E080818061808381E08093510501
:104B600078940895AADFE0EEF0E080818160808390
:104B7000E8EDF0E080818F77808319BC80818F7EA3
:104B800080831092510508950895E8EDF0E080814A
:104B90008E7F80831092E20008951092DA001092C6
:104BA000E10008951F920F920FB60F9211242F93D8
:104BB0003F934F935F936F937F938F939F93AF93A5
:104BC000BF93EF93FF938091DA0080FF15C080912F
:104BD000D80080FF11C08091DA008E7F8093DA00C8
:104BE0008091D90080FF05C081E080935205CCDF21
:104BF00003C010925205C8DF8091E10080FF1DC004
:104C00008091E20080FF19C08091E1008E7F809347
:104C1000E1008091E2008E7F8093E2008091E200CB
:104C200080618093E2008091D80080628093D800F8
:104C300019BC85E080935205A7DF8091E10084FFD5
:104C400029C08091E20084FF25C019BC89B582602B
:104C500089BD09B400FEFDCF8091D8008F7D80937F
:104C6000D8008091E1008F7E8093E1008091E20086
:104C70008F7E8093E2008091E20081608093E20069
:104C800080915005882311F084E001C083E0809377
:104C900052057ADF8091E10083FF23C08091E2001A
:104CA00083FF1FC08091E100877F8093E10082E055
:104CB00080935205109250058091E1008E7F809381
:104CC000E1008091E2008E7F8093E2008091E2001B
:104CD00080618093E200A3DD42E060E080E08CDD53
:104CE00053DFFF91EF91BF91AF919F918F917F9192
:104CF0006F915F914F913F912F910F900FBE0F9049
:104D00001F901895CF9380915205882359F0C09138
:104D1000E900C7701092E9008091E80083FD34DC5F
:104D2000C093E900CF910895CF92DF92FF920F9345
:104D30001F93CF93DF931F92CDB7DEB7182F062FA7
:104D400028988FEF99830E940B03F12EC12E998131
:104D5000D92E8C2D8F19801738F480E00E940B0318
:104D6000F60181936F01F5CF289A0F90DF91CF91D3
:104D70001F910F91FF90DF90CF900895CF938823DC
:104D800031F01092890686E30E94CE0307C085E3C6
:104D90000E947F038D30A9F780E039C085E30E942F
:104DA0007F03C82F8130D1F78BE30E94CE038AE3C3
:104DB0000E94CE0310927E061092800610927F060B
:104DC00010928206109281062AE836E0309384061B
:104DD0002093830610928506C0938606109287065C
:104DE00080918A038093880660E083E00E94BC0380
:104DF00062E088E00E94BC0384E30E94CE0385E366
:104E00000E947F038D30D9F781E080938906CF918E
:104E100008951F93CF93DF93182F539852981092B1
:104E20008A03EA98209A289A8EE190E00E9423064D
:104E300028988EE190E00E942306289A8DE290E067
:104E40000E94230680E30E94CE0384E690E00E9445
:104E50002306113029F0123091F5C3E0D4E02AC0C6
:104E6000C0E5D4E0FE018491813480F010938A0380
:104E700083E30E94CE038CE0EEE7F6E0DF011D92B3
:104E80008A95E9F784E00E94280619C0FE01319650
:104E900064910E94BC032296B5E0C831DB0711F78C
:104EA000E5CF319664910E94BC032296F4E0CB3C9E
:104EB000DF07E1F2FE018491813498F3D7CFDF91CF
:104EC000CF911F910895A2E0B0E0E8E6F7E227C392
:104ED00080918A03882309F4EBC080918906813090
:104EE00049F030F0823061F0833009F46FC09BC02C
:104EF00081E0DDC04A9B97C082E08093890693C021
:104F00004B9B91C063E080918306909184060CDFF7
:104F1000209188068091830690918406213071F457
:104F2000BE016F5F7F4FEED08111BDC0898180933C
:104F30007E0687D1AC0160E081E00EC040E0BE019A
:104F40006F5F7F4F24D18111AEC0898180937E062F
:104F500078D1AC0160E080E08AD1909380068093A4
:104F60007F0660917F0670918006693482E0780741
:104F700008F099C086E06F3F710509F050F40E9477
:104F8000BC0360E088E00E94BC0381E0809385065A
:104F900002C00E94BC038091830690918406039610
:104FA000909384068093830680917F06909180067B
:104FB000039790938206809381061092860683E081
:104FC0008093890667E00E94BC032DC04B9B2BC0D9
:104FD00080918106909182068F3F910509F058F4E7
:104FE00080918506811107C060E088E00E94BC03C3
:104FF00081E0809385066FE180918306909184061D
:1050000093DE80918106909182064F97909382065D
:105010008093810680918306909184064F969093A9
:105020008406809383064A9941C080918906823024
:1050300008F43CC0609181068091830690918406BB
:1050400073DE81E08093870680918806813051F479
:1050500080917E06F6D0AC016BE575E08AE896E0BB
:105060001AD109C080917E06ECD0AC016BE575E0E9
:105070008AE896E083D1892BB1F482E60E948D06FE
:1050800010E080915B05DDD0212F30E02817390733
:1050900040F4F901E55AFA4F80810E944D071F5FE5
:1050A000F0CF0E94D9061092890602C080E066DE29
:1050B0002296E3E050C2FC012181223771F4828103
:1050C000882369F0833711F481E003C0843719F431
:1050D00082E09FDE04C080E0FCCF233791F0809116
:1050E0008A03813029F0823031F487EF93E005C0E4
:1050F0008DEF93E002C083EF93E00E94CC060C9406
:10510000D9060895CF93DF93EC01A881E981CA2FD6
:10511000C295CF70D0E0C65EDE4F4881AF70B0E080
:10512000A65EBE4F2C91AE2FA295AF70B0E0A65EEA
:10513000BE4F8C91EF70F0E0E65EFE4F908151E043
:105140002F3F09F050E031E04F3F09F030E0532BA2
:1051500031E08F3F09F030E0352BA9F49F3F99F003
:10516000D0E44D9FA0011124E0E12E9F9001112475
:10517000242B292BF4E08F9FC0011124282BEB0155
:10518000288380E001C081E0DF91CF910895DC01A8
:1051900011969C911197411118C012968C911297FB
:1051A000E82FEF73F0E0E65CFE4F5081E92FEF70DF
:1051B00024E0E29FF0011124829586958695837004
:1051C000E82BE65CFE4F808102C080E050E02C912D
:1051D000E22FE37030E1E39FF001112492959F707C
:1051E000E92BE65CFE4F908126952695E22FF0E0B4
:1051F000E65CFE4F2081E1E09F3F09F0E0E031E016
:105200002F3F09F030E0E32B31E05F3F09F030E061
:105210003E2B99F48F3F89F0E0E12E9F90011124FD
:10522000292BFB01208341110AC0F0E18F9FC001AF
:105230001124852BFB01818302C081E0089580E069
:105240000895482F50E08A3150F09A012A513109CF
:1052500084E0359527958A95E1F72D5F01C022E01E
:10526000CA010196820F911D820F911D0895882316
:1052700031F0CA0161110196880F991F0895CA0182
:10528000880F991F840F951F96958795611101C00E
:1052900040FD01960895A0E0B0E0E0E5F9E232C1FA
:1052A0004C01EB016A01A12CB12C00E010E0612C53
:1052B000712CE12CF12CA2E14A2E512CC114D10405
:1052C00009F450C0BE01C4011DDF81114EC082E04F
:1052D000C816D10499F08AE0E816F10458F0C70125
:1052E0000A97B201E6D031E020E0892B09F030E0E6
:1052F000032F122FA114B10499F005C0A114B10419
:1053000091F001E010E0609470947724888190E03F
:105310006816790669F5A12CB12C612C712C17C087
:105320000115110581F0930120953095232F332726
:10533000888190E028173907D9F4AA24A394B12CC6
:1053400000E010E004C06881C3019DD03C0181E011
:10535000C81AD1088FEFE81AF80A82E0880E911C6B
:105360002196ACCF80E090E005C081E090E002C0E3
:1053700082E090E0CDB7DEB7E0E1E0C0A0E0B0E0D1
:10538000E3ECF9E2C1C07C01EB013A0100E010E07E
:10539000C12CD12C92E1892E912C6114710409F455
:1053A0006CC081E068167104D1F441E0BE01C70110
:1053B000EEDE882319F081E090E061C056018FEFA6
:1053C000A81AB80AC801809590959927288130E0DD
:1053D0008217930709F44DC082E090E050C040E08E
:1053E000BE01C701D4DE8111E6CF82E0681A7108E0
:1053F000560182E0A80EB11C6114710451F08BE0DB
:10540000A816B104C8F0C6010A97B40152D0892B7E
:1054100099F40095109598013327898190E0281719
:105420003907D1F6012F1127888190E00817190755
:1054300099F600E010E018C0688181E068167104F8
:1054400071F4C80120D08C019C0120953095232F48
:105450003327898190E02817390731F0BDCFC80183
:1054600012D0698110D08C0183E0E80EF11C2296E5
:1054700002C0612C712C650190CF80E090E0CDB727
:10548000DEB7EEE05DC078E0AC0144275078452FF0
:105490005527262F207830E0880F991F4217530791
:1054A00021F025E682272DE39227660F715061F7E0
:1054B0000895AA1BBB1B51E107C0AA1FBB1FA6175B
:1054C000B70710F0A61BB70B881F991F5A95A9F7AD
:1054D00080959095BC01CD01089597FB072E16F499
:1054E000009406D077FD08D0E4DF07FC05D03EF439
:1054F000909581959F4F0895709561957F4F089580
:105500002F923F924F925F926F927F928F929F92D3
:10551000AF92BF92CF92DF92EF92FF920F931F93C1
:10552000CF93DF93CDB7DEB7CA1BDB0B0FB6F89472
:10553000DEBF0FBECDBF09942A88398848885F84B2
:105540006E847D848C849B84AA84B984C884DF8023
:10555000EE80FD800C811B81AA81B981CE0FD11D07
:105560000FB6F894DEBF0FBECDBFED010895EE0F6C
:10557000FF1F0590F491E02D0994CF93DF938230C3
:10558000910510F482E090E0E091D408F091D50804
:1055900020E030E0A0E0B0E0309739F14081518167
:1055A00048175907B8F04817590771F48281938159
:1055B000109729F013969C938E9312972CC090937A
:1055C000D5088093D40827C02115310531F0421742
:1055D000530718F0A901DB0101C0EF019A01BD01D9
:1055E000DF010280F381E02DD7CF21153105F9F0DD
:1055F000281B390B2430310580F48A819B81611589
:10560000710521F0FB019383828304C09093D50838
:105610008093D408FE01329644C0FE01E20FF31FCE
:105620008193919322503109398328833AC0209184
:10563000D2083091D308232B41F4209116013091E8
:1056400017013093D3082093D20820911401309190
:1056500015012115310541F42DB73EB740911801D0
:1056600050911901241B350BE091D208F091D30819
:10567000E217F307A0F42E1B3F0B2817390778F029
:10568000AC014E5F5F4F2417350748F04E0F5F1F88
:105690005093D3084093D2088193919302C0E0E0E5
:1056A000F0E0CF01DF91CF910895CF93DF93009782
:1056B00009F487C0FC01329713821282C091D4088A
:1056C000D091D508209781F420813181280F391F8E
:1056D0008091D2089091D3088217930779F5F093BF
:1056E000D308E093D2086DC0DE0120E030E0AE17B1
:1056F000BF0750F412964D915C9113979D0141158F
:10570000510509F1DA01F3CFB383A28340815181BE
:10571000840F951F8A179B0771F48D919C911197A7
:10572000840F951F02969183808312968D919C9190
:105730001397938382832115310529F4F093D508BB
:10574000E093D4083EC0D9011396FC93EE931297D0
:105750004D915D91A40FB51FEA17FB0779F4808185
:105760009181840F951F0296D90111969C938E9377
:105770008281938113969C938E931297E0E0F0E0E0
:105780008A819B81009719F0FE01EC01F9CFCE01CF
:10579000029628813981820F931F2091D20830917F
:1057A000D3082817390769F4309729F41092D508DF
:1057B0001092D40802C013821282D093D308C093EF
:1057C000D208DF91CF910895F999FECF92BD81BDA6
:1057D000F89A992780B50895262FF999FECF1FBA18
:1057E00092BD81BD20BD0FB6F894FA9AF99A0FBE0A
:0857F00001960895F894FFCF23
:1057F800802500000000080210B0710600A4016CAA
:1058080002D804060000D6082000FFFFFFFFFF03B0
:1058180002FFFF0100FFFFFFFFFFAAA9A6A59A99B3
:1058280096956A6966655A595655FFFFFFFFFFFF4F
:10583800FFFFFFFFFF03FF0102FFFFFFFF07FFFF5F
:1058480000FFFF0506FF04FFFFFFFFFFFF0BFF0937
:105858000AFFFF0FFFFF08FFFFFFFF0D0EFF0CFF02
:10586800FFFFFFFFFFFFFFFFFFFF160D0E0B1C19C9
:0E5878001A132C252623343132293231000038
:00000001FF
